{
  "address": "0x3A65B59bB336cf4209612540c1402b0908409586",
  "abi": [
    {
      "inputs": [
        {
          "internalType": "string",
          "name": "baseURI",
          "type": "string"
        },
        {
          "internalType": "address",
          "name": "initialOwner",
          "type": "address"
        }
      ],
      "stateMutability": "nonpayable",
      "type": "constructor"
    },
    {
      "inputs": [
        {
          "internalType": "address",
          "name": "sender",
          "type": "address"
        },
        {
          "internalType": "uint256",
          "name": "balance",
          "type": "uint256"
        },
        {
          "internalType": "uint256",
          "name": "needed",
          "type": "uint256"
        },
        {
          "internalType": "uint256",
          "name": "tokenId",
          "type": "uint256"
        }
      ],
      "name": "ERC1155InsufficientBalance",
      "type": "error"
    },
    {
      "inputs": [
        {
          "internalType": "address",
          "name": "approver",
          "type": "address"
        }
      ],
      "name": "ERC1155InvalidApprover",
      "type": "error"
    },
    {
      "inputs": [
        {
          "internalType": "uint256",
          "name": "idsLength",
          "type": "uint256"
        },
        {
          "internalType": "uint256",
          "name": "valuesLength",
          "type": "uint256"
        }
      ],
      "name": "ERC1155InvalidArrayLength",
      "type": "error"
    },
    {
      "inputs": [
        {
          "internalType": "address",
          "name": "operator",
          "type": "address"
        }
      ],
      "name": "ERC1155InvalidOperator",
      "type": "error"
    },
    {
      "inputs": [
        {
          "internalType": "address",
          "name": "receiver",
          "type": "address"
        }
      ],
      "name": "ERC1155InvalidReceiver",
      "type": "error"
    },
    {
      "inputs": [
        {
          "internalType": "address",
          "name": "sender",
          "type": "address"
        }
      ],
      "name": "ERC1155InvalidSender",
      "type": "error"
    },
    {
      "inputs": [
        {
          "internalType": "address",
          "name": "operator",
          "type": "address"
        },
        {
          "internalType": "address",
          "name": "owner",
          "type": "address"
        }
      ],
      "name": "ERC1155MissingApprovalForAll",
      "type": "error"
    },
    {
      "inputs": [
        {
          "internalType": "address",
          "name": "owner",
          "type": "address"
        }
      ],
      "name": "OwnableInvalidOwner",
      "type": "error"
    },
    {
      "inputs": [
        {
          "internalType": "address",
          "name": "account",
          "type": "address"
        }
      ],
      "name": "OwnableUnauthorizedAccount",
      "type": "error"
    },
    {
      "anonymous": false,
      "inputs": [
        {
          "indexed": true,
          "internalType": "address",
          "name": "account",
          "type": "address"
        },
        {
          "indexed": true,
          "internalType": "address",
          "name": "operator",
          "type": "address"
        },
        {
          "indexed": false,
          "internalType": "bool",
          "name": "approved",
          "type": "bool"
        }
      ],
      "name": "ApprovalForAll",
      "type": "event"
    },
    {
      "anonymous": false,
      "inputs": [
        {
          "indexed": true,
          "internalType": "uint256",
          "name": "tokenId",
          "type": "uint256"
        },
        {
          "indexed": false,
          "internalType": "enum TestNFT.Category",
          "name": "category",
          "type": "uint8"
        },
        {
          "indexed": false,
          "internalType": "uint256",
          "name": "maxSupply",
          "type": "uint256"
        }
      ],
      "name": "NFTCreated",
      "type": "event"
    },
    {
      "anonymous": false,
      "inputs": [
        {
          "indexed": true,
          "internalType": "address",
          "name": "account",
          "type": "address"
        },
        {
          "indexed": true,
          "internalType": "uint256",
          "name": "tokenId",
          "type": "uint256"
        }
      ],
      "name": "NFTMinted",
      "type": "event"
    },
    {
      "anonymous": false,
      "inputs": [
        {
          "indexed": true,
          "internalType": "address",
          "name": "previousOwner",
          "type": "address"
        },
        {
          "indexed": true,
          "internalType": "address",
          "name": "newOwner",
          "type": "address"
        }
      ],
      "name": "OwnershipTransferred",
      "type": "event"
    },
    {
      "anonymous": false,
      "inputs": [
        {
          "indexed": true,
          "internalType": "address",
          "name": "operator",
          "type": "address"
        },
        {
          "indexed": true,
          "internalType": "address",
          "name": "from",
          "type": "address"
        },
        {
          "indexed": true,
          "internalType": "address",
          "name": "to",
          "type": "address"
        },
        {
          "indexed": false,
          "internalType": "uint256[]",
          "name": "ids",
          "type": "uint256[]"
        },
        {
          "indexed": false,
          "internalType": "uint256[]",
          "name": "values",
          "type": "uint256[]"
        }
      ],
      "name": "TransferBatch",
      "type": "event"
    },
    {
      "anonymous": false,
      "inputs": [
        {
          "indexed": true,
          "internalType": "address",
          "name": "operator",
          "type": "address"
        },
        {
          "indexed": true,
          "internalType": "address",
          "name": "from",
          "type": "address"
        },
        {
          "indexed": true,
          "internalType": "address",
          "name": "to",
          "type": "address"
        },
        {
          "indexed": false,
          "internalType": "uint256",
          "name": "id",
          "type": "uint256"
        },
        {
          "indexed": false,
          "internalType": "uint256",
          "name": "value",
          "type": "uint256"
        }
      ],
      "name": "TransferSingle",
      "type": "event"
    },
    {
      "anonymous": false,
      "inputs": [
        {
          "indexed": false,
          "internalType": "string",
          "name": "value",
          "type": "string"
        },
        {
          "indexed": true,
          "internalType": "uint256",
          "name": "id",
          "type": "uint256"
        }
      ],
      "name": "URI",
      "type": "event"
    },
    {
      "inputs": [
        {
          "internalType": "address",
          "name": "account",
          "type": "address"
        },
        {
          "internalType": "uint256",
          "name": "id",
          "type": "uint256"
        }
      ],
      "name": "balanceOf",
      "outputs": [
        {
          "internalType": "uint256",
          "name": "",
          "type": "uint256"
        }
      ],
      "stateMutability": "view",
      "type": "function"
    },
    {
      "inputs": [
        {
          "internalType": "address[]",
          "name": "accounts",
          "type": "address[]"
        },
        {
          "internalType": "uint256[]",
          "name": "ids",
          "type": "uint256[]"
        }
      ],
      "name": "balanceOfBatch",
      "outputs": [
        {
          "internalType": "uint256[]",
          "name": "",
          "type": "uint256[]"
        }
      ],
      "stateMutability": "view",
      "type": "function"
    },
    {
      "inputs": [
        {
          "internalType": "uint256",
          "name": "tokenId",
          "type": "uint256"
        },
        {
          "internalType": "enum TestNFT.Category",
          "name": "category",
          "type": "uint8"
        },
        {
          "internalType": "uint256",
          "name": "maxSupply",
          "type": "uint256"
        },
        {
          "internalType": "uint256",
          "name": "price",
          "type": "uint256"
        }
      ],
      "name": "createNFT",
      "outputs": [],
      "stateMutability": "nonpayable",
      "type": "function"
    },
    {
      "inputs": [
        {
          "internalType": "address",
          "name": "account",
          "type": "address"
        },
        {
          "internalType": "address",
          "name": "operator",
          "type": "address"
        }
      ],
      "name": "isApprovedForAll",
      "outputs": [
        {
          "internalType": "bool",
          "name": "",
          "type": "bool"
        }
      ],
      "stateMutability": "view",
      "type": "function"
    },
    {
      "inputs": [
        {
          "internalType": "uint256",
          "name": "tokenId",
          "type": "uint256"
        }
      ],
      "name": "mint",
      "outputs": [],
      "stateMutability": "payable",
      "type": "function"
    },
    {
      "inputs": [
        {
          "internalType": "uint256",
          "name": "",
          "type": "uint256"
        }
      ],
      "name": "nftInfo",
      "outputs": [
        {
          "internalType": "enum TestNFT.Category",
          "name": "category",
          "type": "uint8"
        },
        {
          "internalType": "uint256",
          "name": "maxSupply",
          "type": "uint256"
        },
        {
          "internalType": "uint256",
          "name": "currentSupply",
          "type": "uint256"
        },
        {
          "internalType": "uint256",
          "name": "price",
          "type": "uint256"
        },
        {
          "internalType": "bool",
          "name": "active",
          "type": "bool"
        }
      ],
      "stateMutability": "view",
      "type": "function"
    },
    {
      "inputs": [],
      "name": "owner",
      "outputs": [
        {
          "internalType": "address",
          "name": "",
          "type": "address"
        }
      ],
      "stateMutability": "view",
      "type": "function"
    },
    {
      "inputs": [],
      "name": "renounceOwnership",
      "outputs": [],
      "stateMutability": "nonpayable",
      "type": "function"
    },
    {
      "inputs": [
        {
          "internalType": "address",
          "name": "from",
          "type": "address"
        },
        {
          "internalType": "address",
          "name": "to",
          "type": "address"
        },
        {
          "internalType": "uint256[]",
          "name": "ids",
          "type": "uint256[]"
        },
        {
          "internalType": "uint256[]",
          "name": "values",
          "type": "uint256[]"
        },
        {
          "internalType": "bytes",
          "name": "data",
          "type": "bytes"
        }
      ],
      "name": "safeBatchTransferFrom",
      "outputs": [],
      "stateMutability": "nonpayable",
      "type": "function"
    },
    {
      "inputs": [
        {
          "internalType": "address",
          "name": "from",
          "type": "address"
        },
        {
          "internalType": "address",
          "name": "to",
          "type": "address"
        },
        {
          "internalType": "uint256",
          "name": "id",
          "type": "uint256"
        },
        {
          "internalType": "uint256",
          "name": "value",
          "type": "uint256"
        },
        {
          "internalType": "bytes",
          "name": "data",
          "type": "bytes"
        }
      ],
      "name": "safeTransferFrom",
      "outputs": [],
      "stateMutability": "nonpayable",
      "type": "function"
    },
    {
      "inputs": [
        {
          "internalType": "address",
          "name": "operator",
          "type": "address"
        },
        {
          "internalType": "bool",
          "name": "approved",
          "type": "bool"
        }
      ],
      "name": "setApprovalForAll",
      "outputs": [],
      "stateMutability": "nonpayable",
      "type": "function"
    },
    {
      "inputs": [
        {
          "internalType": "string",
          "name": "newBaseURI",
          "type": "string"
        }
      ],
      "name": "setBaseURI",
      "outputs": [],
      "stateMutability": "nonpayable",
      "type": "function"
    },
    {
      "inputs": [
        {
          "internalType": "bytes4",
          "name": "interfaceId",
          "type": "bytes4"
        }
      ],
      "name": "supportsInterface",
      "outputs": [
        {
          "internalType": "bool",
          "name": "",
          "type": "bool"
        }
      ],
      "stateMutability": "view",
      "type": "function"
    },
    {
      "inputs": [
        {
          "internalType": "address",
          "name": "newOwner",
          "type": "address"
        }
      ],
      "name": "transferOwnership",
      "outputs": [],
      "stateMutability": "nonpayable",
      "type": "function"
    },
    {
      "inputs": [
        {
          "internalType": "uint256",
          "name": "tokenId",
          "type": "uint256"
        }
      ],
      "name": "uri",
      "outputs": [
        {
          "internalType": "string",
          "name": "",
          "type": "string"
        }
      ],
      "stateMutability": "view",
      "type": "function"
    },
    {
      "inputs": [
        {
          "internalType": "address",
          "name": "",
          "type": "address"
        },
        {
          "internalType": "enum TestNFT.Category",
          "name": "",
          "type": "uint8"
        }
      ],
      "name": "userCategoryBalance",
      "outputs": [
        {
          "internalType": "uint256",
          "name": "",
          "type": "uint256"
        }
      ],
      "stateMutability": "view",
      "type": "function"
    },
    {
      "inputs": [],
      "name": "withdraw",
      "outputs": [],
      "stateMutability": "nonpayable",
      "type": "function"
    }
  ],
  "transactionHash": "0xfebe4c1b18310d43784de8579b60872b9e2f022c3b1fdb3a36a0925391aafd71",
  "args": [
    "https://ipfs.io/ipfs/",
    "0x9B0Bd8c17Ab7961b9A74b5A8c948B1B32ff20763"
  ],
  "numDeployments": 1,
  "solcInputHash": "7df409d2ee92ef42f8e75bd58d4a0560",
  "bytecode": "0x60806040523480156200001157600080fd5b506040516200203138038062002031833981016040819052620000349162000149565b60408051808201909152600781526615195cdd13919560ca1b602082015281906200005f81620000b2565b506001600160a01b0381166200008f57604051631e4fbdf760e01b81526000600482015260240160405180910390fd5b6200009a81620000c4565b506006620000a98382620002c0565b5050506200038c565b6002620000c08282620002c0565b5050565b600380546001600160a01b038381166001600160a01b0319831681179093556040519116919082907f8be0079c531659141344cd1fd0a4f28419497f9722a3daafe3b4186f6b6457e090600090a35050565b634e487b7160e01b600052604160045260246000fd5b80516001600160a01b03811681146200014457600080fd5b919050565b600080604083850312156200015d57600080fd5b82516001600160401b03808211156200017557600080fd5b818501915085601f8301126200018a57600080fd5b8151818111156200019f576200019f62000116565b604051601f8201601f19908116603f01168101908382118183101715620001ca57620001ca62000116565b81604052828152602093508884848701011115620001e757600080fd5b600091505b828210156200020b5784820184015181830185015290830190620001ec565b6000848483010152809650505050620002268186016200012c565b925050509250929050565b600181811c908216806200024657607f821691505b6020821081036200026757634e487b7160e01b600052602260045260246000fd5b50919050565b601f821115620002bb57600081815260208120601f850160051c81016020861015620002965750805b601f850160051c820191505b81811015620002b757828155600101620002a2565b5050505b505050565b81516001600160401b03811115620002dc57620002dc62000116565b620002f481620002ed845462000231565b846200026d565b602080601f8311600181146200032c5760008415620003135750858301515b600019600386901b1c1916600185901b178555620002b7565b600085815260208120601f198616915b828110156200035d578886015182559484019460019091019084016200033c565b50858210156200037c5787850151600019600388901b60f8161c191681555b5050505050600190811b01905550565b611c95806200039c6000396000f3fe6080604052600436106100fd5760003560e01c806355f804b311610095578063a0712d6811610064578063a0712d681461030c578063a22cb4651461031f578063e985e9c51461033f578063f242432a1461035f578063f2fde38b1461037f57600080fd5b806355f804b314610277578063715018a61461029757806382a48a04146102ac5780638da5cb5b146102e457600080fd5b80632eb2c2d6116100d15780632eb2c2d6146101f35780633ccfd60b1461021557806341508c3c1461022a5780634e1273f41461024a57600080fd5b8062fdd58e1461010257806301ffc9a7146101355780630e89341c146101655780631f8bc79014610192575b600080fd5b34801561010e57600080fd5b5061012261011d36600461131e565b61039f565b6040519081526020015b60405180910390f35b34801561014157600080fd5b5061015561015036600461135e565b6103c7565b604051901515815260200161012c565b34801561017157600080fd5b50610185610180366004611382565b610417565b60405161012c91906113eb565b34801561019e57600080fd5b506101e26101ad366004611382565b60046020819052600091825260409091208054600182015460028301546003840154939094015460ff92831694919391921685565b60405161012c959493929190611436565b3480156101ff57600080fd5b5061021361020e3660046115b6565b6104a8565b005b34801561022157600080fd5b5061021361050f565b34801561023657600080fd5b5061021361024536600461166f565b610553565b34801561025657600080fd5b5061026a6102653660046116aa565b61069f565b60405161012c91906117a5565b34801561028357600080fd5b506102136102923660046117b8565b610774565b3480156102a357600080fd5b5061021361078c565b3480156102b857600080fd5b506101226102c7366004611809565b600560209081526000928352604080842090915290825290205481565b3480156102f057600080fd5b506003546040516001600160a01b03909116815260200161012c565b61021361031a366004611382565b6107a0565b34801561032b57600080fd5b5061021361033a36600461183c565b6109e0565b34801561034b57600080fd5b5061015561035a366004611878565b6109eb565b34801561036b57600080fd5b5061021361037a3660046118a2565b610a19565b34801561038b57600080fd5b5061021361039a366004611907565b610a78565b6000818152602081815260408083206001600160a01b03861684529091529020545b92915050565b60006001600160e01b03198216636cdb3d1360e11b14806103f857506001600160e01b031982166303a24d0760e21b145b806103c157506301ffc9a760e01b6001600160e01b03198316146103c1565b6000818152600460208190526040909120015460609060ff166104765760405162461bcd60e51b815260206004820152601260248201527113919508191bd95cc81b9bdd08195e1a5cdd60721b60448201526064015b60405180910390fd5b600661048183610ab3565b60405160200161049292919061195c565b6040516020818303038152906040529050919050565b336001600160a01b03861681148015906104c957506104c786826109eb565b155b156104fa5760405163711bec9160e11b81526001600160a01b0380831660048301528716602482015260440161046d565b6105078686868686610b46565b505050505050565b610517610bad565b6003546040516001600160a01b03909116904780156108fc02916000818181858888f19350505050158015610550573d6000803e3d6000fd5b50565b61055b610bad565b6000848152600460208190526040909120015460ff16156105b35760405162461bcd60e51b81526020600482015260126024820152714e465420616c72656164792065786973747360701b604482015260640161046d565b6040518060a001604052808460038111156105d0576105d06113fe565b815260208082018590526000604080840182905260608401869052600160809094018490528882526004909252208251815491929091839160ff1990911690836003811115610621576106216113fe565b0217905550602082015160018201556040808301516002830155606083015160038301556080909201516004909101805460ff19169115159190911790555184907fd5760347191d206c7e52c2976472c334a96b691638a0003e3be0de9debedc5109061069190869086906119f3565b60405180910390a250505050565b606081518351146106d05781518351604051635b05999160e01b81526004810192909252602482015260440161046d565b6000835167ffffffffffffffff8111156106ec576106ec611468565b604051908082528060200260200182016040528015610715578160200160208202803683370190505b50905060005b845181101561076c5760208082028601015161073f9060208084028701015161039f565b82828151811061075157610751611a0e565b602090810291909101015261076581611a3a565b905061071b565b509392505050565b61077c610bad565b60066107888282611a9e565b5050565b610794610bad565b61079e6000610bda565b565b60008181526004602081905260409091209081015460ff166107f95760405162461bcd60e51b815260206004820152601260248201527113919508191bd95cc81b9bdd08195e1a5cdd60721b604482015260640161046d565b80600301543410156108445760405162461bcd60e51b8152602060048201526014602482015273125b9cdd59999a58da595b9d081c185e5b595b9d60621b604482015260640161046d565b80600101548160020154106108905760405162461bcd60e51b815260206004820152601260248201527113585e081cdd5c1c1b1e481c995858da195960721b604482015260640161046d565b33600090815260056020526040812082546002929060ff1660038111156108b9576108b96113fe565b60038111156108ca576108ca6113fe565b8152602001908152602001600020541061091f5760405162461bcd60e51b815260206004820152601660248201527510d85d1959dbdc9e481b1a5b5a5d081c995858da195960521b604482015260640161046d565b60028101805490600061093183611a3a565b9091555050336000908152600560205260408120825490919060ff16600381111561095e5761095e6113fe565b600381111561096f5761096f6113fe565b8152602001908152602001600020600081548092919061098e90611a3a565b91905055506109af3383600160405180602001604052806000815250610c2c565b604051829033907f4cc0a9c4a99ddc700de1af2c9f916a7cbfdb71f14801ccff94061ad1ef8a804090600090a35050565b610788338383610c89565b6001600160a01b03918216600090815260016020908152604080832093909416825291909152205460ff1690565b336001600160a01b0386168114801590610a3a5750610a3886826109eb565b155b15610a6b5760405163711bec9160e11b81526001600160a01b0380831660048301528716602482015260440161046d565b6105078686868686610d1f565b610a80610bad565b6001600160a01b038116610aaa57604051631e4fbdf760e01b81526000600482015260240161046d565b61055081610bda565b60606000610ac083610dad565b600101905060008167ffffffffffffffff811115610ae057610ae0611468565b6040519080825280601f01601f191660200182016040528015610b0a576020820181803683370190505b5090508181016020015b600019016f181899199a1a9b1b9c1cb0b131b232b360811b600a86061a8153600a8504945084610b1457509392505050565b6001600160a01b038416610b7057604051632bfa23e760e11b81526000600482015260240161046d565b6001600160a01b038516610b9957604051626a0d4560e21b81526000600482015260240161046d565b610ba68585858585610e85565b5050505050565b6003546001600160a01b0316331461079e5760405163118cdaa760e01b815233600482015260240161046d565b600380546001600160a01b038381166001600160a01b0319831681179093556040519116919082907f8be0079c531659141344cd1fd0a4f28419497f9722a3daafe3b4186f6b6457e090600090a35050565b6001600160a01b038416610c5657604051632bfa23e760e11b81526000600482015260240161046d565b60408051600180825260208201869052818301908152606082018590526080820190925290610507600087848487610e85565b6001600160a01b038216610cb25760405162ced3e160e81b81526000600482015260240161046d565b6001600160a01b03838116600081815260016020908152604080832094871680845294825291829020805460ff191686151590811790915591519182527f17307eab39ab6107e8899845ad3d59bd9653f200f220920489ca2b5937696c31910160405180910390a3505050565b6001600160a01b038416610d4957604051632bfa23e760e11b81526000600482015260240161046d565b6001600160a01b038516610d7257604051626a0d4560e21b81526000600482015260240161046d565b60408051600180825260208201869052818301908152606082018590526080820190925290610da48787848487610e85565b50505050505050565b60008072184f03e93ff9f4daa797ed6e38ed64bf6a1f0160401b8310610dec5772184f03e93ff9f4daa797ed6e38ed64bf6a1f0160401b830492506040015b6d04ee2d6d415b85acef81000000008310610e18576d04ee2d6d415b85acef8100000000830492506020015b662386f26fc100008310610e3657662386f26fc10000830492506010015b6305f5e1008310610e4e576305f5e100830492506008015b6127108310610e6257612710830492506004015b60648310610e74576064830492506002015b600a83106103c15760010192915050565b610e9185858585610ed8565b6001600160a01b03841615610ba65782513390600103610eca5760208481015190840151610ec38389898585896110f5565b5050610507565b610507818787878787611219565b8051825114610f075781518151604051635b05999160e01b81526004810192909252602482015260440161046d565b3360005b8351811015611016576020818102858101820151908501909101516001600160a01b03881615610fbe576000828152602081815260408083206001600160a01b038c16845290915290205481811015610f97576040516303dee4c560e01b81526001600160a01b038a16600482015260248101829052604481018390526064810184905260840161046d565b6000838152602081815260408083206001600160a01b038d16845290915290209082900390555b6001600160a01b03871615611003576000828152602081815260408083206001600160a01b038b16845290915281208054839290610ffd908490611b5e565b90915550505b50508061100f90611a3a565b9050610f0b565b5082516001036110975760208301516000906020840151909150856001600160a01b0316876001600160a01b0316846001600160a01b03167fc3d58168c5ae7397731d063d5bbf3d657854427343f4c083240f7aacaa2d0f628585604051611088929190918252602082015260400190565b60405180910390a45050610ba6565b836001600160a01b0316856001600160a01b0316826001600160a01b03167f4a39dc06d4c0dbc64b70af90fd698a233a518aa5d07e595d983b8c0526c8f7fb86866040516110e6929190611b71565b60405180910390a45050505050565b6001600160a01b0384163b156105075760405163f23a6e6160e01b81526001600160a01b0385169063f23a6e61906111399089908990889088908890600401611b9f565b6020604051808303816000875af1925050508015611174575060408051601f3d908101601f1916820190925261117191810190611be4565b60015b6111dd573d8080156111a2576040519150601f19603f3d011682016040523d82523d6000602084013e6111a7565b606091505b5080516000036111d557604051632bfa23e760e11b81526001600160a01b038616600482015260240161046d565b805181602001fd5b6001600160e01b0319811663f23a6e6160e01b14610da457604051632bfa23e760e11b81526001600160a01b038616600482015260240161046d565b6001600160a01b0384163b156105075760405163bc197c8160e01b81526001600160a01b0385169063bc197c819061125d9089908990889088908890600401611c01565b6020604051808303816000875af1925050508015611298575060408051601f3d908101601f1916820190925261129591810190611be4565b60015b6112c6573d8080156111a2576040519150601f19603f3d011682016040523d82523d6000602084013e6111a7565b6001600160e01b0319811663bc197c8160e01b14610da457604051632bfa23e760e11b81526001600160a01b038616600482015260240161046d565b80356001600160a01b038116811461131957600080fd5b919050565b6000806040838503121561133157600080fd5b61133a83611302565b946020939093013593505050565b6001600160e01b03198116811461055057600080fd5b60006020828403121561137057600080fd5b813561137b81611348565b9392505050565b60006020828403121561139457600080fd5b5035919050565b60005b838110156113b657818101518382015260200161139e565b50506000910152565b600081518084526113d781602086016020860161139b565b601f01601f19169290920160200192915050565b60208152600061137b60208301846113bf565b634e487b7160e01b600052602160045260246000fd5b6004811061143257634e487b7160e01b600052602160045260246000fd5b9052565b60a081016114448288611414565b85602083015284604083015283606083015282151560808301529695505050505050565b634e487b7160e01b600052604160045260246000fd5b604051601f8201601f1916810167ffffffffffffffff811182821017156114a7576114a7611468565b604052919050565b600067ffffffffffffffff8211156114c9576114c9611468565b5060051b60200190565b600082601f8301126114e457600080fd5b813560206114f96114f4836114af565b61147e565b82815260059290921b8401810191818101908684111561151857600080fd5b8286015b84811015611533578035835291830191830161151c565b509695505050505050565b600067ffffffffffffffff83111561155857611558611468565b61156b601f8401601f191660200161147e565b905082815283838301111561157f57600080fd5b828260208301376000602084830101529392505050565b600082601f8301126115a757600080fd5b61137b8383356020850161153e565b600080600080600060a086880312156115ce57600080fd5b6115d786611302565b94506115e560208701611302565b9350604086013567ffffffffffffffff8082111561160257600080fd5b61160e89838a016114d3565b9450606088013591508082111561162457600080fd5b61163089838a016114d3565b9350608088013591508082111561164657600080fd5b5061165388828901611596565b9150509295509295909350565b80356004811061131957600080fd5b6000806000806080858703121561168557600080fd5b8435935061169560208601611660565b93969395505050506040820135916060013590565b600080604083850312156116bd57600080fd5b823567ffffffffffffffff808211156116d557600080fd5b818501915085601f8301126116e957600080fd5b813560206116f96114f4836114af565b82815260059290921b8401810191818101908984111561171857600080fd5b948201945b8386101561173d5761172e86611302565b8252948201949082019061171d565b9650508601359250508082111561175357600080fd5b50611760858286016114d3565b9150509250929050565b600081518084526020808501945080840160005b8381101561179a5781518752958201959082019060010161177e565b509495945050505050565b60208152600061137b602083018461176a565b6000602082840312156117ca57600080fd5b813567ffffffffffffffff8111156117e157600080fd5b8201601f810184136117f257600080fd5b6118018482356020840161153e565b949350505050565b6000806040838503121561181c57600080fd5b61182583611302565b915061183360208401611660565b90509250929050565b6000806040838503121561184f57600080fd5b61185883611302565b91506020830135801515811461186d57600080fd5b809150509250929050565b6000806040838503121561188b57600080fd5b61189483611302565b915061183360208401611302565b600080600080600060a086880312156118ba57600080fd5b6118c386611302565b94506118d160208701611302565b93506040860135925060608601359150608086013567ffffffffffffffff8111156118fb57600080fd5b61165388828901611596565b60006020828403121561191957600080fd5b61137b82611302565b600181811c9082168061193657607f821691505b60208210810361195657634e487b7160e01b600052602260045260246000fd5b50919050565b600080845461196a81611922565b600182811680156119825760018114611997576119c6565b60ff19841687528215158302870194506119c6565b8860005260208060002060005b858110156119bd5781548a8201529084019082016119a4565b50505082870194505b5050505083516119da81836020880161139b565b64173539b7b760d91b9101908152600501949350505050565b60408101611a018285611414565b8260208301529392505050565b634e487b7160e01b600052603260045260246000fd5b634e487b7160e01b600052601160045260246000fd5b600060018201611a4c57611a4c611a24565b5060010190565b601f821115611a9957600081815260208120601f850160051c81016020861015611a7a5750805b601f850160051c820191505b8181101561050757828155600101611a86565b505050565b815167ffffffffffffffff811115611ab857611ab8611468565b611acc81611ac68454611922565b84611a53565b602080601f831160018114611b015760008415611ae95750858301515b600019600386901b1c1916600185901b178555610507565b600085815260208120601f198616915b82811015611b3057888601518255948401946001909101908401611b11565b5085821015611b4e5787850151600019600388901b60f8161c191681555b5050505050600190811b01905550565b808201808211156103c1576103c1611a24565b604081526000611b84604083018561176a565b8281036020840152611b96818561176a565b95945050505050565b6001600160a01b03868116825285166020820152604081018490526060810183905260a060808201819052600090611bd9908301846113bf565b979650505050505050565b600060208284031215611bf657600080fd5b815161137b81611348565b6001600160a01b0386811682528516602082015260a060408201819052600090611c2d9083018661176a565b8281036060840152611c3f818661176a565b90508281036080840152611c5381856113bf565b9897505050505050505056fea2646970667358221220705485ead6e20e79ac21088fe0469dc0bd1fb884fd907c37fd1f62e41830695064736f6c63430008140033",
  "devdoc": {
    "author": "lupo0x",
    "errors": {
      "ERC1155InsufficientBalance(address,uint256,uint256,uint256)": [
        {
          "details": "Indicates an error related to the current `balance` of a `sender`. Used in transfers.",
          "params": {
            "balance": "Current balance for the interacting account.",
            "needed": "Minimum amount required to perform a transfer.",
            "sender": "Address whose tokens are being transferred.",
            "tokenId": "Identifier number of a token."
          }
        }
      ],
      "ERC1155InvalidApprover(address)": [
        {
          "details": "Indicates a failure with the `approver` of a token to be approved. Used in approvals.",
          "params": {
            "approver": "Address initiating an approval operation."
          }
        }
      ],
      "ERC1155InvalidArrayLength(uint256,uint256)": [
        {
          "details": "Indicates an array length mismatch between ids and values in a safeBatchTransferFrom operation. Used in batch transfers.",
          "params": {
            "idsLength": "Length of the array of token identifiers",
            "valuesLength": "Length of the array of token amounts"
          }
        }
      ],
      "ERC1155InvalidOperator(address)": [
        {
          "details": "Indicates a failure with the `operator` to be approved. Used in approvals.",
          "params": {
            "operator": "Address that may be allowed to operate on tokens without being their owner."
          }
        }
      ],
      "ERC1155InvalidReceiver(address)": [
        {
          "details": "Indicates a failure with the token `receiver`. Used in transfers.",
          "params": {
            "receiver": "Address to which tokens are being transferred."
          }
        }
      ],
      "ERC1155InvalidSender(address)": [
        {
          "details": "Indicates a failure with the token `sender`. Used in transfers.",
          "params": {
            "sender": "Address whose tokens are being transferred."
          }
        }
      ],
      "ERC1155MissingApprovalForAll(address,address)": [
        {
          "details": "Indicates a failure with the `operator`s approval. Used in transfers.",
          "params": {
            "operator": "Address that may be allowed to operate on tokens without being their owner.",
            "owner": "Address of the current owner of a token."
          }
        }
      ],
      "OwnableInvalidOwner(address)": [
        {
          "details": "The owner is not a valid owner account. (eg. `address(0)`)"
        }
      ],
      "OwnableUnauthorizedAccount(address)": [
        {
          "details": "The caller account is not authorized to perform an operation."
        }
      ]
    },
    "events": {
      "ApprovalForAll(address,address,bool)": {
        "details": "Emitted when `account` grants or revokes permission to `operator` to transfer their tokens, according to `approved`."
      },
      "NFTCreated(uint256,uint8,uint256)": {
        "params": {
          "category": "The category of the NFT",
          "maxSupply": "Maximum number of editions allowed",
          "tokenId": "The ID of the new NFT"
        }
      },
      "NFTMinted(address,uint256)": {
        "params": {
          "account": "The address that minted the NFT",
          "tokenId": "The ID of the minted NFT"
        }
      },
      "TransferBatch(address,address,address,uint256[],uint256[])": {
        "details": "Equivalent to multiple {TransferSingle} events, where `operator`, `from` and `to` are the same for all transfers."
      },
      "TransferSingle(address,address,address,uint256,uint256)": {
        "details": "Emitted when `value` amount of tokens of type `id` are transferred from `from` to `to` by `operator`."
      },
      "URI(string,uint256)": {
        "details": "Emitted when the URI for token type `id` changes to `value`, if it is a non-programmatic URI. If an {URI} event was emitted for `id`, the standard https://eips.ethereum.org/EIPS/eip-1155#metadata-extensions[guarantees] that `value` will equal the value returned by {IERC1155MetadataURI-uri}."
      }
    },
    "kind": "dev",
    "methods": {
      "balanceOf(address,uint256)": {
        "details": "See {IERC1155-balanceOf}."
      },
      "balanceOfBatch(address[],uint256[])": {
        "details": "See {IERC1155-balanceOfBatch}. Requirements: - `accounts` and `ids` must have the same length."
      },
      "constructor": {
        "params": {
          "baseURI": "The base URI for token metadata"
        }
      },
      "createNFT(uint256,uint8,uint256,uint256)": {
        "params": {
          "category": "The category of the NFT",
          "maxSupply": "Maximum number of editions allowed",
          "price": "Price in wei to mint each edition",
          "tokenId": "The ID for the new NFT"
        }
      },
      "isApprovedForAll(address,address)": {
        "details": "See {IERC1155-isApprovedForAll}."
      },
      "mint(uint256)": {
        "params": {
          "tokenId": "The ID of the NFT to mint"
        }
      },
      "owner()": {
        "details": "Returns the address of the current owner."
      },
      "renounceOwnership()": {
        "details": "Leaves the contract without owner. It will not be possible to call `onlyOwner` functions. Can only be called by the current owner. NOTE: Renouncing ownership will leave the contract without an owner, thereby disabling any functionality that is only available to the owner."
      },
      "safeBatchTransferFrom(address,address,uint256[],uint256[],bytes)": {
        "details": "See {IERC1155-safeBatchTransferFrom}."
      },
      "safeTransferFrom(address,address,uint256,uint256,bytes)": {
        "details": "See {IERC1155-safeTransferFrom}."
      },
      "setApprovalForAll(address,bool)": {
        "details": "See {IERC1155-setApprovalForAll}."
      },
      "setBaseURI(string)": {
        "params": {
          "newBaseURI": "The new base URI"
        }
      },
      "supportsInterface(bytes4)": {
        "details": "See {IERC165-supportsInterface}."
      },
      "transferOwnership(address)": {
        "details": "Transfers ownership of the contract to a new account (`newOwner`). Can only be called by the current owner."
      },
      "uri(uint256)": {
        "params": {
          "tokenId": "The ID of the token"
        },
        "returns": {
          "_0": "The token's URI"
        }
      }
    },
    "title": "TestNFT Contract",
    "version": 1
  },
  "userdoc": {
    "events": {
      "NFTCreated(uint256,uint8,uint256)": {
        "notice": "Emitted when a new NFT type is created"
      },
      "NFTMinted(address,uint256)": {
        "notice": "Emitted when an NFT is minted"
      }
    },
    "kind": "user",
    "methods": {
      "constructor": {
        "notice": "Initializes the NFT contract"
      },
      "createNFT(uint256,uint8,uint256,uint256)": {
        "notice": "Creates a new NFT type"
      },
      "mint(uint256)": {
        "notice": "Mints an NFT"
      },
      "setBaseURI(string)": {
        "notice": "Sets the base URI for token metadata"
      },
      "uri(uint256)": {
        "notice": "Gets the URI for a token's metadata"
      },
      "withdraw()": {
        "notice": "Withdraws contract balance to owner"
      }
    },
    "version": 1
  },
  "storageLayout": {
    "storage": [
      {
        "astId": 326,
        "contract": "contracts/TestNFT.sol:TestNFT",
        "label": "_balances",
        "offset": 0,
        "slot": "0",
        "type": "t_mapping(t_uint256,t_mapping(t_address,t_uint256))"
      },
      {
        "astId": 332,
        "contract": "contracts/TestNFT.sol:TestNFT",
        "label": "_operatorApprovals",
        "offset": 0,
        "slot": "1",
        "type": "t_mapping(t_address,t_mapping(t_address,t_bool))"
      },
      {
        "astId": 334,
        "contract": "contracts/TestNFT.sol:TestNFT",
        "label": "_uri",
        "offset": 0,
        "slot": "2",
        "type": "t_string_storage"
      },
      {
        "astId": 8,
        "contract": "contracts/TestNFT.sol:TestNFT",
        "label": "_owner",
        "offset": 0,
        "slot": "3",
        "type": "t_address"
      },
      {
        "astId": 3321,
        "contract": "contracts/TestNFT.sol:TestNFT",
        "label": "nftInfo",
        "offset": 0,
        "slot": "4",
        "type": "t_mapping(t_uint256,t_struct(NFTInfo)3316_storage)"
      },
      {
        "astId": 3328,
        "contract": "contracts/TestNFT.sol:TestNFT",
        "label": "userCategoryBalance",
        "offset": 0,
        "slot": "5",
        "type": "t_mapping(t_address,t_mapping(t_enum(Category)3304,t_uint256))"
      },
      {
        "astId": 3330,
        "contract": "contracts/TestNFT.sol:TestNFT",
        "label": "_baseURI",
        "offset": 0,
        "slot": "6",
        "type": "t_string_storage"
      }
    ],
    "types": {
      "t_address": {
        "encoding": "inplace",
        "label": "address",
        "numberOfBytes": "20"
      },
      "t_bool": {
        "encoding": "inplace",
        "label": "bool",
        "numberOfBytes": "1"
      },
      "t_enum(Category)3304": {
        "encoding": "inplace",
        "label": "enum TestNFT.Category",
        "numberOfBytes": "1"
      },
      "t_mapping(t_address,t_bool)": {
        "encoding": "mapping",
        "key": "t_address",
        "label": "mapping(address => bool)",
        "numberOfBytes": "32",
        "value": "t_bool"
      },
      "t_mapping(t_address,t_mapping(t_address,t_bool))": {
        "encoding": "mapping",
        "key": "t_address",
        "label": "mapping(address => mapping(address => bool))",
        "numberOfBytes": "32",
        "value": "t_mapping(t_address,t_bool)"
      },
      "t_mapping(t_address,t_mapping(t_enum(Category)3304,t_uint256))": {
        "encoding": "mapping",
        "key": "t_address",
        "label": "mapping(address => mapping(enum TestNFT.Category => uint256))",
        "numberOfBytes": "32",
        "value": "t_mapping(t_enum(Category)3304,t_uint256)"
      },
      "t_mapping(t_address,t_uint256)": {
        "encoding": "mapping",
        "key": "t_address",
        "label": "mapping(address => uint256)",
        "numberOfBytes": "32",
        "value": "t_uint256"
      },
      "t_mapping(t_enum(Category)3304,t_uint256)": {
        "encoding": "mapping",
        "key": "t_enum(Category)3304",
        "label": "mapping(enum TestNFT.Category => uint256)",
        "numberOfBytes": "32",
        "value": "t_uint256"
      },
      "t_mapping(t_uint256,t_mapping(t_address,t_uint256))": {
        "encoding": "mapping",
        "key": "t_uint256",
        "label": "mapping(uint256 => mapping(address => uint256))",
        "numberOfBytes": "32",
        "value": "t_mapping(t_address,t_uint256)"
      },
      "t_mapping(t_uint256,t_struct(NFTInfo)3316_storage)": {
        "encoding": "mapping",
        "key": "t_uint256",
        "label": "mapping(uint256 => struct TestNFT.NFTInfo)",
        "numberOfBytes": "32",
        "value": "t_struct(NFTInfo)3316_storage"
      },
      "t_string_storage": {
        "encoding": "bytes",
        "label": "string",
        "numberOfBytes": "32"
      },
      "t_struct(NFTInfo)3316_storage": {
        "encoding": "inplace",
        "label": "struct TestNFT.NFTInfo",
        "members": [
          {
            "astId": 3307,
            "contract": "contracts/TestNFT.sol:TestNFT",
            "label": "category",
            "offset": 0,
            "slot": "0",
            "type": "t_enum(Category)3304"
          },
          {
            "astId": 3309,
            "contract": "contracts/TestNFT.sol:TestNFT",
            "label": "maxSupply",
            "offset": 0,
            "slot": "1",
            "type": "t_uint256"
          },
          {
            "astId": 3311,
            "contract": "contracts/TestNFT.sol:TestNFT",
            "label": "currentSupply",
            "offset": 0,
            "slot": "2",
            "type": "t_uint256"
          },
          {
            "astId": 3313,
            "contract": "contracts/TestNFT.sol:TestNFT",
            "label": "price",
            "offset": 0,
            "slot": "3",
            "type": "t_uint256"
          },
          {
            "astId": 3315,
            "contract": "contracts/TestNFT.sol:TestNFT",
            "label": "active",
            "offset": 0,
            "slot": "4",
            "type": "t_bool"
          }
        ],
        "numberOfBytes": "160"
      },
      "t_uint256": {
        "encoding": "inplace",
        "label": "uint256",
        "numberOfBytes": "32"
      }
    }
  }
}